{
  "_format": "hh-sol-artifact-1",
  "contractName": "SmartNotary",
  "sourceName": "contracts/SmartNotary.sol",
  "abi": [
    {
      "inputs": [
        {
          "internalType": "string",
          "name": "_fileHash",
          "type": "string"
        }
      ],
      "name": "getDocument",
      "outputs": [
        {
          "internalType": "string",
          "name": "",
          "type": "string"
        },
        {
          "internalType": "string",
          "name": "",
          "type": "string"
        },
        {
          "internalType": "address",
          "name": "",
          "type": "address"
        },
        {
          "internalType": "uint256",
          "name": "",
          "type": "uint256"
        }
      ],
      "stateMutability": "view",
      "type": "function"
    },
    {
      "inputs": [
        {
          "internalType": "string",
          "name": "_fileHash",
          "type": "string"
        },
        {
          "internalType": "string",
          "name": "_ipfsCID",
          "type": "string"
        }
      ],
      "name": "notarize",
      "outputs": [],
      "stateMutability": "nonpayable",
      "type": "function"
    }
  ],
  "bytecode": "0x608060405234801561001057600080fd5b50610aba806100206000396000f3fe608060405234801561001057600080fd5b50600436106100365760003560e01c80637ccb6a641461003b578063e2034caa1461006e575b600080fd5b610055600480360381019061005091906104fa565b61008a565b604051610065949392919061061c565b60405180910390f35b6100886004803603810190610083919061066f565b610264565b005b606080600080600080866040516100a19190610723565b90815260200160405180910390206040518060800160405290816000820180546100ca90610769565b80601f01602080910402602001604051908101604052809291908181526020018280546100f690610769565b80156101435780601f1061011857610100808354040283529160200191610143565b820191906000526020600020905b81548152906001019060200180831161012657829003601f168201915b5050505050815260200160018201805461015c90610769565b80601f016020809104026020016040519081016040528092919081815260200182805461018890610769565b80156101d55780601f106101aa576101008083540402835291602001916101d5565b820191906000526020600020905b8154815290600101906020018083116101b857829003601f168201915b505050505081526020016002820160009054906101000a900473ffffffffffffffffffffffffffffffffffffffff1673ffffffffffffffffffffffffffffffffffffffff1673ffffffffffffffffffffffffffffffffffffffff168152602001600382015481525050905080600001518160200151826040015183606001519450945094509450509193509193565b600080836040516102759190610723565b908152602001604051809103902060030154146102c7576040517f08c379a00000000000000000000000000000000000000000000000000000000081526004016102be906107e6565b60405180910390fd5b60405180608001604052808381526020018281526020013373ffffffffffffffffffffffffffffffffffffffff1681526020014281525060008360405161030e9190610723565b9081526020016040518091039020600082015181600001908161033191906109b2565b50602082015181600101908161034791906109b2565b5060408201518160020160006101000a81548173ffffffffffffffffffffffffffffffffffffffff021916908373ffffffffffffffffffffffffffffffffffffffff160217905550606082015181600301559050505050565b6000604051905090565b600080fd5b600080fd5b600080fd5b600080fd5b6000601f19601f8301169050919050565b7f4e487b7100000000000000000000000000000000000000000000000000000000600052604160045260246000fd5b610407826103be565b810181811067ffffffffffffffff82111715610426576104256103cf565b5b80604052505050565b60006104396103a0565b905061044582826103fe565b919050565b600067ffffffffffffffff821115610465576104646103cf565b5b61046e826103be565b9050602081019050919050565b82818337600083830152505050565b600061049d6104988461044a565b61042f565b9050828152602081018484840111156104b9576104b86103b9565b5b6104c484828561047b565b509392505050565b600082601f8301126104e1576104e06103b4565b5b81356104f184826020860161048a565b91505092915050565b6000602082840312156105105761050f6103aa565b5b600082013567ffffffffffffffff81111561052e5761052d6103af565b5b61053a848285016104cc565b91505092915050565b600081519050919050565b600082825260208201905092915050565b60005b8381101561057d578082015181840152602081019050610562565b60008484015250505050565b600061059482610543565b61059e818561054e565b93506105ae81856020860161055f565b6105b7816103be565b840191505092915050565b600073ffffffffffffffffffffffffffffffffffffffff82169050919050565b60006105ed826105c2565b9050919050565b6105fd816105e2565b82525050565b6000819050919050565b61061681610603565b82525050565b600060808201905081810360008301526106368187610589565b9050818103602083015261064a8186610589565b905061065960408301856105f4565b610666606083018461060d565b95945050505050565b60008060408385031215610686576106856103aa565b5b600083013567ffffffffffffffff8111156106a4576106a36103af565b5b6106b0858286016104cc565b925050602083013567ffffffffffffffff8111156106d1576106d06103af565b5b6106dd858286016104cc565b9150509250929050565b600081905092915050565b60006106fd82610543565b61070781856106e7565b935061071781856020860161055f565b80840191505092915050565b600061072f82846106f2565b915081905092915050565b7f4e487b7100000000000000000000000000000000000000000000000000000000600052602260045260246000fd5b6000600282049050600182168061078157607f821691505b6020821081036107945761079361073a565b5b50919050565b7f416c7265616479206e6f746172697a6564000000000000000000000000000000600082015250565b60006107d060118361054e565b91506107db8261079a565b602082019050919050565b600060208201905081810360008301526107ff816107c3565b9050919050565b60008190508160005260206000209050919050565b60006020601f8301049050919050565b600082821b905092915050565b6000600883026108687fffffffffffffffffffffffffffffffffffffffffffffffffffffffffffffffff8261082b565b610872868361082b565b95508019841693508086168417925050509392505050565b6000819050919050565b60006108af6108aa6108a584610603565b61088a565b610603565b9050919050565b6000819050919050565b6108c983610894565b6108dd6108d5826108b6565b848454610838565b825550505050565b600090565b6108f26108e5565b6108fd8184846108c0565b505050565b5b81811015610921576109166000826108ea565b600181019050610903565b5050565b601f8211156109665761093781610806565b6109408461081b565b8101602085101561094f578190505b61096361095b8561081b565b830182610902565b50505b505050565b600082821c905092915050565b60006109896000198460080261096b565b1980831691505092915050565b60006109a28383610978565b9150826002028217905092915050565b6109bb82610543565b67ffffffffffffffff8111156109d4576109d36103cf565b5b6109de8254610769565b6109e9828285610925565b600060209050601f831160018114610a1c5760008415610a0a578287015190505b610a148582610996565b865550610a7c565b601f198416610a2a86610806565b60005b82811015610a5257848901518255600182019150602085019450602081019050610a2d565b86831015610a6f5784890151610a6b601f891682610978565b8355505b6001600288020188555050505b50505050505056fea2646970667358221220f5d6aab2d4d3c0bcadf6c2b4aea8a6d50f0d667f8acd78a4122f33cf341ad4ea64736f6c63430008180033",
  "linkReferences": {},
  "deployedLinkReferences": {}
}